{
  "_format": "hh-sol-artifact-1",
  "contractName": "MyEpicNFT",
  "sourceName": "contracts/myEpicNFT.sol",
  "abi": [
    {
      "inputs": [],
      "stateMutability": "nonpayable",
      "type": "constructor"
    },
    {
      "anonymous": false,
      "inputs": [
        {
          "indexed": true,
          "internalType": "address",
          "name": "owner",
          "type": "address"
        },
        {
          "indexed": true,
          "internalType": "address",
          "name": "approved",
          "type": "address"
        },
        {
          "indexed": true,
          "internalType": "uint256",
          "name": "tokenId",
          "type": "uint256"
        }
      ],
      "name": "Approval",
      "type": "event"
    },
    {
      "anonymous": false,
      "inputs": [
        {
          "indexed": true,
          "internalType": "address",
          "name": "owner",
          "type": "address"
        },
        {
          "indexed": true,
          "internalType": "address",
          "name": "operator",
          "type": "address"
        },
        {
          "indexed": false,
          "internalType": "bool",
          "name": "approved",
          "type": "bool"
        }
      ],
      "name": "ApprovalForAll",
      "type": "event"
    },
    {
      "anonymous": false,
      "inputs": [
        {
          "indexed": false,
          "internalType": "address",
          "name": "sender",
          "type": "address"
        },
        {
          "indexed": false,
          "internalType": "uint256",
          "name": "tokenId",
          "type": "uint256"
        }
      ],
      "name": "NewEpicNFTMinted",
      "type": "event"
    },
    {
      "anonymous": false,
      "inputs": [
        {
          "indexed": true,
          "internalType": "address",
          "name": "from",
          "type": "address"
        },
        {
          "indexed": true,
          "internalType": "address",
          "name": "to",
          "type": "address"
        },
        {
          "indexed": true,
          "internalType": "uint256",
          "name": "tokenId",
          "type": "uint256"
        }
      ],
      "name": "Transfer",
      "type": "event"
    },
    {
      "inputs": [],
      "name": "GetMaxTokenCount",
      "outputs": [
        {
          "internalType": "uint256",
          "name": "",
          "type": "uint256"
        }
      ],
      "stateMutability": "view",
      "type": "function"
    },
    {
      "inputs": [],
      "name": "GetTokenCount",
      "outputs": [
        {
          "internalType": "uint256",
          "name": "",
          "type": "uint256"
        }
      ],
      "stateMutability": "view",
      "type": "function"
    },
    {
      "inputs": [
        {
          "internalType": "address",
          "name": "to",
          "type": "address"
        },
        {
          "internalType": "uint256",
          "name": "tokenId",
          "type": "uint256"
        }
      ],
      "name": "approve",
      "outputs": [],
      "stateMutability": "nonpayable",
      "type": "function"
    },
    {
      "inputs": [
        {
          "internalType": "address",
          "name": "owner",
          "type": "address"
        }
      ],
      "name": "balanceOf",
      "outputs": [
        {
          "internalType": "uint256",
          "name": "",
          "type": "uint256"
        }
      ],
      "stateMutability": "view",
      "type": "function"
    },
    {
      "inputs": [
        {
          "internalType": "uint256",
          "name": "tokenId",
          "type": "uint256"
        }
      ],
      "name": "getApproved",
      "outputs": [
        {
          "internalType": "address",
          "name": "",
          "type": "address"
        }
      ],
      "stateMutability": "view",
      "type": "function"
    },
    {
      "inputs": [
        {
          "internalType": "address",
          "name": "owner",
          "type": "address"
        },
        {
          "internalType": "address",
          "name": "operator",
          "type": "address"
        }
      ],
      "name": "isApprovedForAll",
      "outputs": [
        {
          "internalType": "bool",
          "name": "",
          "type": "bool"
        }
      ],
      "stateMutability": "view",
      "type": "function"
    },
    {
      "inputs": [],
      "name": "makeAnEpicNFT",
      "outputs": [],
      "stateMutability": "nonpayable",
      "type": "function"
    },
    {
      "inputs": [],
      "name": "name",
      "outputs": [
        {
          "internalType": "string",
          "name": "",
          "type": "string"
        }
      ],
      "stateMutability": "view",
      "type": "function"
    },
    {
      "inputs": [
        {
          "internalType": "uint256",
          "name": "tokenId",
          "type": "uint256"
        }
      ],
      "name": "ownerOf",
      "outputs": [
        {
          "internalType": "address",
          "name": "",
          "type": "address"
        }
      ],
      "stateMutability": "view",
      "type": "function"
    },
    {
      "inputs": [
        {
          "internalType": "uint256",
          "name": "tokenId",
          "type": "uint256"
        }
      ],
      "name": "pickRandomColor",
      "outputs": [
        {
          "internalType": "string",
          "name": "",
          "type": "string"
        }
      ],
      "stateMutability": "view",
      "type": "function"
    },
    {
      "inputs": [
        {
          "internalType": "uint256",
          "name": "tokenId",
          "type": "uint256"
        }
      ],
      "name": "pickRandomFirstWord",
      "outputs": [
        {
          "internalType": "string",
          "name": "",
          "type": "string"
        }
      ],
      "stateMutability": "view",
      "type": "function"
    },
    {
      "inputs": [
        {
          "internalType": "uint256",
          "name": "tokenId",
          "type": "uint256"
        }
      ],
      "name": "pickRandomSecondWord",
      "outputs": [
        {
          "internalType": "string",
          "name": "",
          "type": "string"
        }
      ],
      "stateMutability": "view",
      "type": "function"
    },
    {
      "inputs": [
        {
          "internalType": "uint256",
          "name": "tokenId",
          "type": "uint256"
        }
      ],
      "name": "pickRandomThirdWord",
      "outputs": [
        {
          "internalType": "string",
          "name": "",
          "type": "string"
        }
      ],
      "stateMutability": "view",
      "type": "function"
    },
    {
      "inputs": [
        {
          "internalType": "address",
          "name": "from",
          "type": "address"
        },
        {
          "internalType": "address",
          "name": "to",
          "type": "address"
        },
        {
          "internalType": "uint256",
          "name": "tokenId",
          "type": "uint256"
        }
      ],
      "name": "safeTransferFrom",
      "outputs": [],
      "stateMutability": "nonpayable",
      "type": "function"
    },
    {
      "inputs": [
        {
          "internalType": "address",
          "name": "from",
          "type": "address"
        },
        {
          "internalType": "address",
          "name": "to",
          "type": "address"
        },
        {
          "internalType": "uint256",
          "name": "tokenId",
          "type": "uint256"
        },
        {
          "internalType": "bytes",
          "name": "_data",
          "type": "bytes"
        }
      ],
      "name": "safeTransferFrom",
      "outputs": [],
      "stateMutability": "nonpayable",
      "type": "function"
    },
    {
      "inputs": [
        {
          "internalType": "address",
          "name": "operator",
          "type": "address"
        },
        {
          "internalType": "bool",
          "name": "approved",
          "type": "bool"
        }
      ],
      "name": "setApprovalForAll",
      "outputs": [],
      "stateMutability": "nonpayable",
      "type": "function"
    },
    {
      "inputs": [
        {
          "internalType": "bytes4",
          "name": "interfaceId",
          "type": "bytes4"
        }
      ],
      "name": "supportsInterface",
      "outputs": [
        {
          "internalType": "bool",
          "name": "",
          "type": "bool"
        }
      ],
      "stateMutability": "view",
      "type": "function"
    },
    {
      "inputs": [],
      "name": "symbol",
      "outputs": [
        {
          "internalType": "string",
          "name": "",
          "type": "string"
        }
      ],
      "stateMutability": "view",
      "type": "function"
    },
    {
      "inputs": [
        {
          "internalType": "uint256",
          "name": "tokenId",
          "type": "uint256"
        }
      ],
      "name": "tokenURI",
      "outputs": [
        {
          "internalType": "string",
          "name": "",
          "type": "string"
        }
      ],
      "stateMutability": "view",
      "type": "function"
    },
    {
      "inputs": [
        {
          "internalType": "address",
          "name": "from",
          "type": "address"
        },
        {
          "internalType": "address",
          "name": "to",
          "type": "address"
        },
        {
          "internalType": "uint256",
          "name": "tokenId",
          "type": "uint256"
        }
      ],
      "name": "transferFrom",
      "outputs": [],
      "stateMutability": "nonpayable",
      "type": "function"
    }
  ],
  "bytecode": "0x6080604052603260085560405180610100016040528060d381526020016200441f60d39139600990805190602001906200003b9291906200061e565b50604051806080016040528060568152602001620044f260569139600a90805190602001906200006d9291906200061e565b5060405180606001604052806040518060400160405280600481526020017f424c41480000000000000000000000000000000000000000000000000000000081525081526020016040518060400160405280600481526020017f424c41480000000000000000000000000000000000000000000000000000000081525081526020016040518060400160405280600481526020017f424c414800000000000000000000000000000000000000000000000000000000815250815250600b9060036200013a929190620006af565b5060405180606001604052806040518060400160405280600481526020017f424c41480000000000000000000000000000000000000000000000000000000081525081526020016040518060400160405280600481526020017f424c41480000000000000000000000000000000000000000000000000000000081525081526020016040518060400160405280600481526020017f424c414800000000000000000000000000000000000000000000000000000000815250815250600c90600362000207929190620006af565b5060405180606001604052806040518060400160405280600481526020017f424c41480000000000000000000000000000000000000000000000000000000081525081526020016040518060400160405280600481526020017f424c41480000000000000000000000000000000000000000000000000000000081525081526020016040518060400160405280600481526020017f424c414800000000000000000000000000000000000000000000000000000000815250815250600d906003620002d4929190620006af565b506040518060c001604052806040518060400160405280600381526020017f726564000000000000000000000000000000000000000000000000000000000081525081526020016040518060400160405280600781526020017f233038433241380000000000000000000000000000000000000000000000000081525081526020016040518060400160405280600581526020017f626c61636b00000000000000000000000000000000000000000000000000000081525081526020016040518060400160405280600681526020017f79656c6c6f77000000000000000000000000000000000000000000000000000081525081526020016040518060400160405280600481526020017f626c75650000000000000000000000000000000000000000000000000000000081525081526020016040518060400160405280600581526020017f677265656e000000000000000000000000000000000000000000000000000000815250815250600e9060066200045292919062000716565b503480156200046057600080fd5b506040518060400160405280600981526020017f5371756172654e465400000000000000000000000000000000000000000000008152506040518060400160405280600681526020017f53515541524500000000000000000000000000000000000000000000000000008152508160009080519060200190620004e59291906200061e565b508060019080519060200190620004fe9291906200061e565b5050506200054c6040518060400160405280601e81526020017f54686973206973206d79204e465420636f6e74726163742e20576f61682100008152506200055260201b6200141d1760201c565b62000937565b620005f2816040516024016200056991906200084b565b6040516020818303038152906040527f41304fac000000000000000000000000000000000000000000000000000000007bffffffffffffffffffffffffffffffffffffffffffffffffffffffff19166020820180517bffffffffffffffffffffffffffffffffffffffffffffffffffffffff8381831617835250505050620005f560201b60201c565b50565b60008151905060006a636f6e736f6c652e6c6f679050602083016000808483855afa5050505050565b8280546200062c90620008c1565b90600052602060002090601f0160209004810192826200065057600085556200069c565b82601f106200066b57805160ff19168380011785556200069c565b828001600101855582156200069c579182015b828111156200069b5782518255916020019190600101906200067e565b5b509050620006ab91906200077d565b5090565b82805482825590600052602060002090810192821562000703579160200282015b8281111562000702578251829080519060200190620006f19291906200061e565b5091602001919060010190620006d0565b5b5090506200071291906200079c565b5090565b8280548282559060005260206000209081019282156200076a579160200282015b8281111562000769578251829080519060200190620007589291906200061e565b509160200191906001019062000737565b5b5090506200077991906200079c565b5090565b5b80821115620007985760008160009055506001016200077e565b5090565b5b80821115620007c05760008181620007b69190620007c4565b506001016200079d565b5090565b508054620007d290620008c1565b6000825580601f10620007e6575062000807565b601f0160209004906000526020600020908101906200080691906200077d565b5b50565b600062000817826200086f565b6200082381856200087a565b9350620008358185602086016200088b565b620008408162000926565b840191505092915050565b600060208201905081810360008301526200086781846200080a565b905092915050565b600081519050919050565b600082825260208201905092915050565b60005b83811015620008ab5780820151818401526020810190506200088e565b83811115620008bb576000848401525b50505050565b60006002820490506001821680620008da57607f821691505b60208210811415620008f157620008f0620008f7565b5b50919050565b7f4e487b7100000000000000000000000000000000000000000000000000000000600052602260045260246000fd5b6000601f19601f8301169050919050565b613ad880620009476000396000f3fe608060405234801561001057600080fd5b506004361061012c5760003560e01c806395d89b41116100ad578063c575757a11610071578063c575757a14610367578063c87b56dd14610397578063dd1cb561146103c7578063de9d132f146103e5578063e985e9c5146103ef5761012c565b806395d89b41146102c3578063a22cb465146102e1578063b187301f146102fd578063b88d4fde1461032d578063b8f37739146103495761012c565b80632de38d68116100f45780632de38d68146101e757806342842e0e14610217578063514dc8c6146102335780636352211e1461026357806370a08231146102935761012c565b806301ffc9a71461013157806306fdde0314610161578063081812fc1461017f578063095ea7b3146101af57806323b872dd146101cb575b600080fd5b61014b600480360381019061014691906126b0565b61041f565b604051610158919061334e565b60405180910390f35b610169610501565b6040516101769190613369565b60405180910390f35b61019960048036038101906101949190612702565b610593565b6040516101a691906132be565b60405180910390f35b6101c960048036038101906101c49190612674565b610618565b005b6101e560048036038101906101e0919061256e565b610730565b005b61020160048036038101906101fc9190612702565b610790565b60405161020e9190613369565b60405180910390f35b610231600480360381019061022c919061256e565b6108ae565b005b61024d60048036038101906102489190612702565b6108ce565b60405161025a9190613369565b60405180910390f35b61027d60048036038101906102789190612702565b6109ec565b60405161028a91906132be565b60405180910390f35b6102ad60048036038101906102a89190612509565b610a9e565b6040516102ba91906135c9565b60405180910390f35b6102cb610b56565b6040516102d89190613369565b60405180910390f35b6102fb60048036038101906102f69190612638565b610be8565b005b61031760048036038101906103129190612702565b610d69565b6040516103249190613369565b60405180910390f35b610347600480360381019061034291906125bd565b610e87565b005b610351610ee9565b60405161035e91906135c9565b60405180910390f35b610381600480360381019061037c9190612702565b610f06565b60405161038e9190613369565b60405180910390f35b6103b160048036038101906103ac9190612702565b611024565b6040516103be9190613369565b60405180910390f35b6103cf611176565b6040516103dc91906135c9565b60405180910390f35b6103ed611180565b005b61040960048036038101906104049190612532565b611389565b604051610416919061334e565b60405180910390f35b60007f80ac58cd000000000000000000000000000000000000000000000000000000007bffffffffffffffffffffffffffffffffffffffffffffffffffffffff1916827bffffffffffffffffffffffffffffffffffffffffffffffffffffffff191614806104ea57507f5b5e139f000000000000000000000000000000000000000000000000000000007bffffffffffffffffffffffffffffffffffffffffffffffffffffffff1916827bffffffffffffffffffffffffffffffffffffffffffffffffffffffff1916145b806104fa57506104f9826114b6565b5b9050919050565b60606000805461051090613868565b80601f016020809104026020016040519081016040528092919081815260200182805461053c90613868565b80156105895780601f1061055e57610100808354040283529160200191610589565b820191906000526020600020905b81548152906001019060200180831161056c57829003601f168201915b5050505050905090565b600061059e82611520565b6105dd576040517f08c379a00000000000000000000000000000000000000000000000000000000081526004016105d490613529565b60405180910390fd5b6004600083815260200190815260200160002060009054906101000a900473ffffffffffffffffffffffffffffffffffffffff169050919050565b6000610623826109ec565b90508073ffffffffffffffffffffffffffffffffffffffff168373ffffffffffffffffffffffffffffffffffffffff161415610694576040517f08c379a000000000000000000000000000000000000000000000000000000000815260040161068b90613589565b60405180910390fd5b8073ffffffffffffffffffffffffffffffffffffffff166106b361158c565b73ffffffffffffffffffffffffffffffffffffffff1614806106e257506106e1816106dc61158c565b611389565b5b610721576040517f08c379a000000000000000000000000000000000000000000000000000000000815260040161071890613469565b60405180910390fd5b61072b8383611594565b505050565b61074161073b61158c565b8261164d565b610780576040517f08c379a0000000000000000000000000000000000000000000000000000000008152600401610777906135a9565b60405180910390fd5b61078b83838361172b565b505050565b606060006107c46107a084611987565b6040516020016107b09190613258565b604051602081830303815290604052611b34565b9050600b80549050816107d791906138e3565b9050600b8181548110610813577f4e487b7100000000000000000000000000000000000000000000000000000000600052603260045260246000fd5b90600052602060002001805461082890613868565b80601f016020809104026020016040519081016040528092919081815260200182805461085490613868565b80156108a15780601f10610876576101008083540402835291602001916108a1565b820191906000526020600020905b81548152906001019060200180831161088457829003601f168201915b5050505050915050919050565b6108c983838360405180602001604052806000815250610e87565b505050565b606060006109026108de84611987565b6040516020016108ee919061329c565b604051602081830303815290604052611b34565b9050600e805490508161091591906138e3565b9050600e8181548110610951577f4e487b7100000000000000000000000000000000000000000000000000000000600052603260045260246000fd5b90600052602060002001805461096690613868565b80601f016020809104026020016040519081016040528092919081815260200182805461099290613868565b80156109df5780601f106109b4576101008083540402835291602001916109df565b820191906000526020600020905b8154815290600101906020018083116109c257829003601f168201915b5050505050915050919050565b6000806002600084815260200190815260200160002060009054906101000a900473ffffffffffffffffffffffffffffffffffffffff169050600073ffffffffffffffffffffffffffffffffffffffff168173ffffffffffffffffffffffffffffffffffffffff161415610a95576040517f08c379a0000000000000000000000000000000000000000000000000000000008152600401610a8c906134a9565b60405180910390fd5b80915050919050565b60008073ffffffffffffffffffffffffffffffffffffffff168273ffffffffffffffffffffffffffffffffffffffff161415610b0f576040517f08c379a0000000000000000000000000000000000000000000000000000000008152600401610b0690613489565b60405180910390fd5b600360008373ffffffffffffffffffffffffffffffffffffffff1673ffffffffffffffffffffffffffffffffffffffff168152602001908152602001600020549050919050565b606060018054610b6590613868565b80601f0160208091040260200160405190810160405280929190818152602001828054610b9190613868565b8015610bde5780601f10610bb357610100808354040283529160200191610bde565b820191906000526020600020905b815481529060010190602001808311610bc157829003601f168201915b5050505050905090565b610bf061158c565b73ffffffffffffffffffffffffffffffffffffffff168273ffffffffffffffffffffffffffffffffffffffff161415610c5e576040517f08c379a0000000000000000000000000000000000000000000000000000000008152600401610c5590613429565b60405180910390fd5b8060056000610c6b61158c565b73ffffffffffffffffffffffffffffffffffffffff1673ffffffffffffffffffffffffffffffffffffffff16815260200190815260200160002060008473ffffffffffffffffffffffffffffffffffffffff1673ffffffffffffffffffffffffffffffffffffffff16815260200190815260200160002060006101000a81548160ff0219169083151502179055508173ffffffffffffffffffffffffffffffffffffffff16610d1861158c565b73ffffffffffffffffffffffffffffffffffffffff167f17307eab39ab6107e8899845ad3d59bd9653f200f220920489ca2b5937696c3183604051610d5d919061334e565b60405180910390a35050565b60606000610d9d610d7984611987565b604051602001610d8991906131f1565b604051602081830303815290604052611b34565b9050600c8054905081610db091906138e3565b9050600c8181548110610dec577f4e487b7100000000000000000000000000000000000000000000000000000000600052603260045260246000fd5b906000526020600020018054610e0190613868565b80601f0160208091040260200160405190810160405280929190818152602001828054610e2d90613868565b8015610e7a5780601f10610e4f57610100808354040283529160200191610e7a565b820191906000526020600020905b815481529060010190602001808311610e5d57829003601f168201915b5050505050915050919050565b610e98610e9261158c565b8361164d565b610ed7576040517f08c379a0000000000000000000000000000000000000000000000000000000008152600401610ece906135a9565b60405180910390fd5b610ee384848484611b67565b50505050565b60006001610ef76007611bc3565b610f01919061377e565b905090565b60606000610f3a610f1684611987565b604051602001610f2691906131cf565b604051602081830303815290604052611b34565b9050600d8054905081610f4d91906138e3565b9050600d8181548110610f89577f4e487b7100000000000000000000000000000000000000000000000000000000600052603260045260246000fd5b906000526020600020018054610f9e90613868565b80601f0160208091040260200160405190810160405280929190818152602001828054610fca90613868565b80156110175780601f10610fec57610100808354040283529160200191611017565b820191906000526020600020905b815481529060010190602001808311610ffa57829003601f168201915b5050505050915050919050565b606061102f82611520565b61106e576040517f08c379a000000000000000000000000000000000000000000000000000000000815260040161106590613509565b60405180910390fd5b600060066000848152602001908152602001600020805461108e90613868565b80601f01602080910402602001604051908101604052809291908181526020018280546110ba90613868565b80156111075780601f106110dc57610100808354040283529160200191611107565b820191906000526020600020905b8154815290600101906020018083116110ea57829003601f168201915b505050505090506000611118611bd1565b905060008151141561112e578192505050611171565b60008251111561116357808260405160200161114b929190613131565b60405160208183030381529060405292505050611171565b61116c84611be8565b925050505b919050565b6000600854905090565b600061118c6007611bc3565b905060085481111561119d57600080fd5b60006111a882610790565b905060006111b583610d69565b905060006111c284610f06565b905060008383836040516020016111db93929190613155565b604051602081830303815290604052905060006111f7866108ce565b90506000600982600a856040516020016112149493929190613186565b604051602081830303815290604052905060006112598461123484611c8f565b604051602001611245929190613213565b604051602081830303815290604052611c8f565b905060008160405160200161126e919061327a565b60405160208183030381529060405290506112bd6040518060400160405280601581526020017f0a2d2d2d2d2d2d2d2d2d2d2d2d2d2d2d2d2d2d2d2d000000000000000000000081525061141d565b6112c68161141d565b6113046040518060400160405280601581526020017f2d2d2d2d2d2d2d2d2d2d2d2d2d2d2d2d2d2d2d2d0a000000000000000000000081525061141d565b61130e338a611e4d565b6113188982611e6b565b6113226007611edf565b611345604051806060016040528060258152602001613a3e602591398a33611ef5565b7febb98688741ffa4c7589bf325de30cf7becb63de567842e1ccdb6cb949fdc82c338a604051611376929190613325565b60405180910390a1505050505050505050565b6000600560008473ffffffffffffffffffffffffffffffffffffffff1673ffffffffffffffffffffffffffffffffffffffff16815260200190815260200160002060008373ffffffffffffffffffffffffffffffffffffffff1673ffffffffffffffffffffffffffffffffffffffff16815260200190815260200160002060009054906101000a900460ff16905092915050565b6114b3816040516024016114319190613369565b6040516020818303038152906040527f41304fac000000000000000000000000000000000000000000000000000000007bffffffffffffffffffffffffffffffffffffffffffffffffffffffff19166020820180517bffffffffffffffffffffffffffffffffffffffffffffffffffffffff8381831617835250505050611f94565b50565b60007f01ffc9a7000000000000000000000000000000000000000000000000000000007bffffffffffffffffffffffffffffffffffffffffffffffffffffffff1916827bffffffffffffffffffffffffffffffffffffffffffffffffffffffff1916149050919050565b60008073ffffffffffffffffffffffffffffffffffffffff166002600084815260200190815260200160002060009054906101000a900473ffffffffffffffffffffffffffffffffffffffff1673ffffffffffffffffffffffffffffffffffffffff1614159050919050565b600033905090565b816004600083815260200190815260200160002060006101000a81548173ffffffffffffffffffffffffffffffffffffffff021916908373ffffffffffffffffffffffffffffffffffffffff160217905550808273ffffffffffffffffffffffffffffffffffffffff16611607836109ec565b73ffffffffffffffffffffffffffffffffffffffff167f8c5be1e5ebec7d5bd14f71427d1e84f3dd0314c0f7b2291e5b200ac8c7c3b92560405160405180910390a45050565b600061165882611520565b611697576040517f08c379a000000000000000000000000000000000000000000000000000000000815260040161168e90613449565b60405180910390fd5b60006116a2836109ec565b90508073ffffffffffffffffffffffffffffffffffffffff168473ffffffffffffffffffffffffffffffffffffffff16148061171157508373ffffffffffffffffffffffffffffffffffffffff166116f984610593565b73ffffffffffffffffffffffffffffffffffffffff16145b8061172257506117218185611389565b5b91505092915050565b8273ffffffffffffffffffffffffffffffffffffffff1661174b826109ec565b73ffffffffffffffffffffffffffffffffffffffff16146117a1576040517f08c379a000000000000000000000000000000000000000000000000000000000815260040161179890613549565b60405180910390fd5b600073ffffffffffffffffffffffffffffffffffffffff168273ffffffffffffffffffffffffffffffffffffffff161415611811576040517f08c379a000000000000000000000000000000000000000000000000000000000815260040161180890613409565b60405180910390fd5b61181c838383611fbd565b611827600082611594565b6001600360008573ffffffffffffffffffffffffffffffffffffffff1673ffffffffffffffffffffffffffffffffffffffff1681526020019081526020016000206000828254611877919061377e565b925050819055506001600360008473ffffffffffffffffffffffffffffffffffffffff1673ffffffffffffffffffffffffffffffffffffffff16815260200190815260200160002060008282546118ce919061369d565b92505081905550816002600083815260200190815260200160002060006101000a81548173ffffffffffffffffffffffffffffffffffffffff021916908373ffffffffffffffffffffffffffffffffffffffff160217905550808273ffffffffffffffffffffffffffffffffffffffff168473ffffffffffffffffffffffffffffffffffffffff167fddf252ad1be2c89b69c2b068fc378daa952ba7f163c4a11628f55a4df523b3ef60405160405180910390a4505050565b606060008214156119cf576040518060400160405280600181526020017f30000000000000000000000000000000000000000000000000000000000000008152509050611b2f565b600082905060005b60008214611a015780806119ea9061389a565b915050600a826119fa91906136f3565b91506119d7565b60008167ffffffffffffffff811115611a43577f4e487b7100000000000000000000000000000000000000000000000000000000600052604160045260246000fd5b6040519080825280601f01601f191660200182016040528015611a755781602001600182028036833780820191505090505b5090505b60008514611b2857600182611a8e919061377e565b9150600a85611a9d91906138e3565b6030611aa9919061369d565b60f81b818381518110611ae5577f4e487b7100000000000000000000000000000000000000000000000000000000600052603260045260246000fd5b60200101907effffffffffffffffffffffffffffffffffffffffffffffffffffffffffffff1916908160001a905350600a85611b2191906136f3565b9450611a79565b8093505050505b919050565b600081604051602001611b47919061311a565b6040516020818303038152906040528051906020012060001c9050919050565b611b7284848461172b565b611b7e84848484611fc2565b611bbd576040517f08c379a0000000000000000000000000000000000000000000000000000000008152600401611bb4906133c9565b60405180910390fd5b50505050565b600081600001549050919050565b606060405180602001604052806000815250905090565b6060611bf382611520565b611c32576040517f08c379a0000000000000000000000000000000000000000000000000000000008152600401611c2990613569565b60405180910390fd5b6000611c3c611bd1565b90506000815111611c5c5760405180602001604052806000815250611c87565b80611c6684611987565b604051602001611c77929190613131565b6040516020818303038152906040525b915050919050565b60606000825190506000811415611cb85760405180602001604052806000815250915050611e48565b60006003600283611cc9919061369d565b611cd391906136f3565b6004611cdf9190613724565b90506000602082611cf0919061369d565b67ffffffffffffffff811115611d2f577f4e487b7100000000000000000000000000000000000000000000000000000000600052604160045260246000fd5b6040519080825280601f01601f191660200182016040528015611d615781602001600182028036833780820191505090505b5090506000604051806060016040528060408152602001613a63604091399050600181016020830160005b86811015611e055760038101905062ffffff818a015116603f8160121c168401518060081b905060ff603f83600c1c1686015116810190508060081b905060ff603f8360061c1686015116810190508060081b905060ff603f831686015116810190508060e01b90508084526004840193505050611d8c565b506003860660018114611e1f5760028114611e2f57611e3a565b613d3d60f01b6002830352611e3a565b603d60f81b60018303525b508484525050819450505050505b919050565b611e67828260405180602001604052806000815250612159565b5050565b611e7482611520565b611eb3576040517f08c379a0000000000000000000000000000000000000000000000000000000008152600401611eaa906134c9565b60405180910390fd5b80600660008481526020019081526020016000209080519060200190611eda929190612395565b505050565b6001816000016000828254019250508190555050565b611f8f838383604051602401611f0d9392919061338b565b6040516020818303038152906040527fe3849f79000000000000000000000000000000000000000000000000000000007bffffffffffffffffffffffffffffffffffffffffffffffffffffffff19166020820180517bffffffffffffffffffffffffffffffffffffffffffffffffffffffff8381831617835250505050611f94565b505050565b60008151905060006a636f6e736f6c652e6c6f679050602083016000808483855afa5050505050565b505050565b6000611fe38473ffffffffffffffffffffffffffffffffffffffff166121b4565b1561214c578373ffffffffffffffffffffffffffffffffffffffff1663150b7a0261200c61158c565b8786866040518563ffffffff1660e01b815260040161202e94939291906132d9565b602060405180830381600087803b15801561204857600080fd5b505af192505050801561207957506040513d601f19601f8201168201806040525081019061207691906126d9565b60015b6120fc573d80600081146120a9576040519150601f19603f3d011682016040523d82523d6000602084013e6120ae565b606091505b506000815114156120f4576040517f08c379a00000000000000000000000000000000000000000000000000000000081526004016120eb906133c9565b60405180910390fd5b805181602001fd5b63150b7a0260e01b7bffffffffffffffffffffffffffffffffffffffffffffffffffffffff1916817bffffffffffffffffffffffffffffffffffffffffffffffffffffffff191614915050612151565b600190505b949350505050565b61216383836121c7565b6121706000848484611fc2565b6121af576040517f08c379a00000000000000000000000000000000000000000000000000000000081526004016121a6906133c9565b60405180910390fd5b505050565b600080823b905060008111915050919050565b600073ffffffffffffffffffffffffffffffffffffffff168273ffffffffffffffffffffffffffffffffffffffff161415612237576040517f08c379a000000000000000000000000000000000000000000000000000000000815260040161222e906134e9565b60405180910390fd5b61224081611520565b15612280576040517f08c379a0000000000000000000000000000000000000000000000000000000008152600401612277906133e9565b60405180910390fd5b61228c60008383611fbd565b6001600360008473ffffffffffffffffffffffffffffffffffffffff1673ffffffffffffffffffffffffffffffffffffffff16815260200190815260200160002060008282546122dc919061369d565b92505081905550816002600083815260200190815260200160002060006101000a81548173ffffffffffffffffffffffffffffffffffffffff021916908373ffffffffffffffffffffffffffffffffffffffff160217905550808273ffffffffffffffffffffffffffffffffffffffff16600073ffffffffffffffffffffffffffffffffffffffff167fddf252ad1be2c89b69c2b068fc378daa952ba7f163c4a11628f55a4df523b3ef60405160405180910390a45050565b8280546123a190613868565b90600052602060002090601f0160209004810192826123c3576000855561240a565b82601f106123dc57805160ff191683800117855561240a565b8280016001018555821561240a579182015b828111156124095782518255916020019190600101906123ee565b5b509050612417919061241b565b5090565b5b8082111561243457600081600090555060010161241c565b5090565b600061244b61244684613615565b6135e4565b90508281526020810184848401111561246357600080fd5b61246e848285613826565b509392505050565b600081359050612485816139e1565b92915050565b60008135905061249a816139f8565b92915050565b6000813590506124af81613a0f565b92915050565b6000815190506124c481613a0f565b92915050565b600082601f8301126124db57600080fd5b81356124eb848260208601612438565b91505092915050565b60008135905061250381613a26565b92915050565b60006020828403121561251b57600080fd5b600061252984828501612476565b91505092915050565b6000806040838503121561254557600080fd5b600061255385828601612476565b925050602061256485828601612476565b9150509250929050565b60008060006060848603121561258357600080fd5b600061259186828701612476565b93505060206125a286828701612476565b92505060406125b3868287016124f4565b9150509250925092565b600080600080608085870312156125d357600080fd5b60006125e187828801612476565b94505060206125f287828801612476565b9350506040612603878288016124f4565b925050606085013567ffffffffffffffff81111561262057600080fd5b61262c878288016124ca565b91505092959194509250565b6000806040838503121561264b57600080fd5b600061265985828601612476565b925050602061266a8582860161248b565b9150509250929050565b6000806040838503121561268757600080fd5b600061269585828601612476565b92505060206126a6858286016124f4565b9150509250929050565b6000602082840312156126c257600080fd5b60006126d0848285016124a0565b91505092915050565b6000602082840312156126eb57600080fd5b60006126f9848285016124b5565b91505092915050565b60006020828403121561271457600080fd5b6000612722848285016124f4565b91505092915050565b612734816137b2565b82525050565b612743816137c4565b82525050565b60006127548261365a565b61275e8185613670565b935061276e818560208601613835565b612777816139d0565b840191505092915050565b600061278d82613665565b6127978185613681565b93506127a7818560208601613835565b6127b0816139d0565b840191505092915050565b60006127c682613665565b6127d08185613692565b93506127e0818560208601613835565b80840191505092915050565b600081546127f981613868565b6128038186613692565b9450600182166000811461281e576001811461282f57612862565b60ff19831686528186019350612862565b61283885613645565b60005b8381101561285a5781548189015260018201915060208101905061283b565b838801955050505b50505092915050565b6000612878603283613681565b91507f4552433732313a207472616e7366657220746f206e6f6e20455243373231526560008301527f63656976657220696d706c656d656e74657200000000000000000000000000006020830152604082019050919050565b60006128de601c83613681565b91507f4552433732313a20746f6b656e20616c7265616479206d696e746564000000006000830152602082019050919050565b600061291e600a83613692565b91507f54484952445f574f5244000000000000000000000000000000000000000000006000830152600a82019050919050565b600061295e602483613681565b91507f4552433732313a207472616e7366657220746f20746865207a65726f2061646460008301527f72657373000000000000000000000000000000000000000000000000000000006020830152604082019050919050565b60006129c4601983613681565b91507f4552433732313a20617070726f766520746f2063616c6c6572000000000000006000830152602082019050919050565b6000612a04606383613692565b91507f222c20226465736372697074696f6e223a20224120686967686c79206163636c60008301527f61696d656420636f6c6c656374696f6e206f6620737175617265732e222c202260208301527f696d616765223a2022646174613a696d6167652f7376672b786d6c3b6261736560408301527f36342c00000000000000000000000000000000000000000000000000000000006060830152606382019050919050565b6000612ab6600b83613692565b91507f5345434f4e445f574f52440000000000000000000000000000000000000000006000830152600b82019050919050565b6000612af6602c83613681565b91507f4552433732313a206f70657261746f7220717565727920666f72206e6f6e657860008301527f697374656e7420746f6b656e00000000000000000000000000000000000000006020830152604082019050919050565b6000612b5c600d83613692565b91507f3c2f746578743e3c2f7376673e000000000000000000000000000000000000006000830152600d82019050919050565b6000612b9c603883613681565b91507f4552433732313a20617070726f76652063616c6c6572206973206e6f74206f7760008301527f6e6572206e6f7220617070726f76656420666f7220616c6c00000000000000006020830152604082019050919050565b6000612c02602a83613681565b91507f4552433732313a2062616c616e636520717565727920666f7220746865207a6560008301527f726f2061646472657373000000000000000000000000000000000000000000006020830152604082019050919050565b6000612c68602983613681565b91507f4552433732313a206f776e657220717565727920666f72206e6f6e657869737460008301527f656e7420746f6b656e00000000000000000000000000000000000000000000006020830152604082019050919050565b6000612cce602e83613681565b91507f45524337323155524953746f726167653a2055524920736574206f66206e6f6e60008301527f6578697374656e7420746f6b656e0000000000000000000000000000000000006020830152604082019050919050565b6000612d34600283613692565b91507f227d0000000000000000000000000000000000000000000000000000000000006000830152600282019050919050565b6000612d74602083613681565b91507f4552433732313a206d696e7420746f20746865207a65726f20616464726573736000830152602082019050919050565b6000612db4603183613681565b91507f45524337323155524953746f726167653a2055524920717565727920666f722060008301527f6e6f6e6578697374656e7420746f6b656e0000000000000000000000000000006020830152604082019050919050565b6000612e1a602c83613681565b91507f4552433732313a20617070726f76656420717565727920666f72206e6f6e657860008301527f697374656e7420746f6b656e00000000000000000000000000000000000000006020830152604082019050919050565b6000612e80602983613681565b91507f4552433732313a207472616e73666572206f6620746f6b656e2074686174206960008301527f73206e6f74206f776e00000000000000000000000000000000000000000000006020830152604082019050919050565b6000612ee6602f83613681565b91507f4552433732314d657461646174613a2055524920717565727920666f72206e6f60008301527f6e6578697374656e7420746f6b656e00000000000000000000000000000000006020830152604082019050919050565b6000612f4c600a83613692565b91507f7b226e616d65223a2022000000000000000000000000000000000000000000006000830152600a82019050919050565b6000612f8c602183613681565b91507f4552433732313a20617070726f76616c20746f2063757272656e74206f776e6560008301527f72000000000000000000000000000000000000000000000000000000000000006020830152604082019050919050565b6000612ff2600a83613692565b91507f46495253545f574f5244000000000000000000000000000000000000000000006000830152600a82019050919050565b6000613032601d83613692565b91507f646174613a6170706c69636174696f6e2f6a736f6e3b6261736536342c0000006000830152601d82019050919050565b6000613072603183613681565b91507f4552433732313a207472616e736665722063616c6c6572206973206e6f74206f60008301527f776e6572206e6f7220617070726f7665640000000000000000000000000000006020830152604082019050919050565b60006130d8600583613692565b91507f434f4c4f520000000000000000000000000000000000000000000000000000006000830152600582019050919050565b6131148161381c565b82525050565b600061312682846127bb565b915081905092915050565b600061313d82856127bb565b915061314982846127bb565b91508190509392505050565b600061316182866127bb565b915061316d82856127bb565b915061317982846127bb565b9150819050949350505050565b600061319282876127ec565b915061319e82866127bb565b91506131aa82856127ec565b91506131b682846127bb565b91506131c182612b4f565b915081905095945050505050565b60006131da82612911565b91506131e682846127bb565b915081905092915050565b60006131fc82612aa9565b915061320882846127bb565b915081905092915050565b600061321e82612f3f565b915061322a82856127bb565b9150613235826129f7565b915061324182846127bb565b915061324c82612d27565b91508190509392505050565b600061326382612fe5565b915061326f82846127bb565b915081905092915050565b600061328582613025565b915061329182846127bb565b915081905092915050565b60006132a7826130cb565b91506132b382846127bb565b915081905092915050565b60006020820190506132d3600083018461272b565b92915050565b60006080820190506132ee600083018761272b565b6132fb602083018661272b565b613308604083018561310b565b818103606083015261331a8184612749565b905095945050505050565b600060408201905061333a600083018561272b565b613347602083018461310b565b9392505050565b6000602082019050613363600083018461273a565b92915050565b600060208201905081810360008301526133838184612782565b905092915050565b600060608201905081810360008301526133a58186612782565b90506133b4602083018561310b565b6133c1604083018461272b565b949350505050565b600060208201905081810360008301526133e28161286b565b9050919050565b60006020820190508181036000830152613402816128d1565b9050919050565b6000602082019050818103600083015261342281612951565b9050919050565b60006020820190508181036000830152613442816129b7565b9050919050565b6000602082019050818103600083015261346281612ae9565b9050919050565b6000602082019050818103600083015261348281612b8f565b9050919050565b600060208201905081810360008301526134a281612bf5565b9050919050565b600060208201905081810360008301526134c281612c5b565b9050919050565b600060208201905081810360008301526134e281612cc1565b9050919050565b6000602082019050818103600083015261350281612d67565b9050919050565b6000602082019050818103600083015261352281612da7565b9050919050565b6000602082019050818103600083015261354281612e0d565b9050919050565b6000602082019050818103600083015261356281612e73565b9050919050565b6000602082019050818103600083015261358281612ed9565b9050919050565b600060208201905081810360008301526135a281612f7f565b9050919050565b600060208201905081810360008301526135c281613065565b9050919050565b60006020820190506135de600083018461310b565b92915050565b6000604051905081810181811067ffffffffffffffff8211171561360b5761360a6139a1565b5b8060405250919050565b600067ffffffffffffffff8211156136305761362f6139a1565b5b601f19601f8301169050602081019050919050565b60008190508160005260206000209050919050565b600081519050919050565b600081519050919050565b600082825260208201905092915050565b600082825260208201905092915050565b600081905092915050565b60006136a88261381c565b91506136b38361381c565b9250827fffffffffffffffffffffffffffffffffffffffffffffffffffffffffffffffff038211156136e8576136e7613914565b5b828201905092915050565b60006136fe8261381c565b91506137098361381c565b92508261371957613718613943565b5b828204905092915050565b600061372f8261381c565b915061373a8361381c565b9250817fffffffffffffffffffffffffffffffffffffffffffffffffffffffffffffffff048311821515161561377357613772613914565b5b828202905092915050565b60006137898261381c565b91506137948361381c565b9250828210156137a7576137a6613914565b5b828203905092915050565b60006137bd826137fc565b9050919050565b60008115159050919050565b60007fffffffff0000000000000000000000000000000000000000000000000000000082169050919050565b600073ffffffffffffffffffffffffffffffffffffffff82169050919050565b6000819050919050565b82818337600083830152505050565b60005b83811015613853578082015181840152602081019050613838565b83811115613862576000848401525b50505050565b6000600282049050600182168061388057607f821691505b6020821081141561389457613893613972565b5b50919050565b60006138a58261381c565b91507fffffffffffffffffffffffffffffffffffffffffffffffffffffffffffffffff8214156138d8576138d7613914565b5b600182019050919050565b60006138ee8261381c565b91506138f98361381c565b92508261390957613908613943565b5b828206905092915050565b7f4e487b7100000000000000000000000000000000000000000000000000000000600052601160045260246000fd5b7f4e487b7100000000000000000000000000000000000000000000000000000000600052601260045260246000fd5b7f4e487b7100000000000000000000000000000000000000000000000000000000600052602260045260246000fd5b7f4e487b7100000000000000000000000000000000000000000000000000000000600052604160045260246000fd5b6000601f19601f8301169050919050565b6139ea816137b2565b81146139f557600080fd5b50565b613a01816137c4565b8114613a0c57600080fd5b50565b613a18816137d0565b8114613a2357600080fd5b50565b613a2f8161381c565b8114613a3a57600080fd5b5056fe416e204e465420772f20494420257320686173206265656e206d696e74656420746f2025734142434445464748494a4b4c4d4e4f505152535455565758595a6162636465666768696a6b6c6d6e6f707172737475767778797a303132333435363738392b2fa26469706673582212206f4c3964765aacd49856043e70b016292d1d0e7f479888d2fd8985541008ea8064736f6c634300080000333c73766720786d6c6e733d27687474703a2f2f7777772e77332e6f72672f323030302f73766727207072657365727665417370656374526174696f3d27784d696e594d696e206d656574272076696577426f783d273020302033353020333530273e3c7374796c653e2e62617365207b2066696c6c3a2077686974653b20666f6e742d66616d696c793a2073657269663b20666f6e742d73697a653a20323470783b207d3c2f7374796c653e3c726563742077696474683d273130302527206865696768743d2731303025272066696c6c3d27272f3e3c7465787420783d273530252720793d273530252720636c6173733d27626173652720646f6d696e616e742d626173656c696e653d276d6964646c652720746578742d616e63686f723d276d6964646c65273e",
  "linkReferences": {},
  "deployedLinkReferences": {}
}